:03006C0075080014
:10007C00750900750A00750B00750C007A00C2A892
:10008C008508900508C2A075820FC002120146D0E7
:10009C000230B206D2A87590552230B2FDD2A02003
:1000AC00B2FDC2A07B00BB040050487C00BC080021
:1000BC00503E30B2FD8A0530B21D758201C003C0BE
:1000CC0004C005120146D005D004D0030D8D02BD2D
:1000DC001E0040E3D2A822EB2409F8E6C313FDF678
:1000EC00BA08004006860574804DF67A000C80BD77
:1000FC000B80B3AA0C7B00EAF4FAEBF4FBAC0B7D9F
:10010C0000ECB50206EDB503028003D2A822850CE3
:10011C0082120123D2A822AA82BA01028012BA0248
:10012C0002800ABA0402800BBA080E800902053854
:10013C0002054F02056102056222AA828A031AEBAC
:10014C0060067B0DDBFE80F4227A00BA01005011B0
:10015C007B00BB010050077C08DCFE0B80F40A809E
:02016C00EA2285
:060000000200130201FEE4
:03000B000204B933
:0300790002000E74
:05000E001201D580FE87
:10016E0075900022AA82E583CA25E0CA33EA2442AA
:10017E00FA753708753800853382853483C00212CC
:10018E00099CAB82D002EB2AF875370875380085CA
:10019E003382853483C000120966AA82AB83D000F5
:1001AE007407C39AFAE49B8AF005F07A017B00800B
:1001BE0006EA2AFAEB33FBD5F0F786047D00EA5CFB
:1001CE00F582EB5DF58322752F0075306475310075
:1001DE007532001205E212033AD2AF438901758CD3
:1001EE00AF758A3CD2A9D28CD2B2D2A84388012252
:1001FE00C020C0E0C0F0C082C083C002C003C004F3
:10020E00C005C006C007C000C001C0D075D0001226
:10021E00007CD0D0D001D000D007D006D005D004BD
:10022E00D003D002D083D082D0F0D0E0D02032AA3A
:10023E002D7B00AC2E7D0074012CF535E43DF5369A
:10024E008A828B8312039AE5828583F045F060687B
:10025E00AA29E5293395E0FBAC2D7D00EC2AF58229
:10026E00ED3BF583AC2AE52A3395E0FDAE2E7F00FB
:10027E00EE2CFEEF3DFFEE24FFF510EF34FFF511EF
:10028E00AE2BE52B3395E0FFEEC39AFAEF9BFB7492
:10029E00012AF512E43BF513AA2CE52C3395E0FB6D
:1002AE00EAC39CFCEB9DFD74012CF514E43DF515A1
:1002BE0012060012040E80707A007B00C3EA9404CA
:1002CE00EB64809480505E8A04EBCC25E0CC33FD49
:1002DE00EC2421F8E6252DFEEC242104F8E6252E4B
:1002EE00FCEE2E2442FEC2D575F008EC30E704B2C7
:1002FE00D5F4048430D502F404FD2EF8ECA2E754B4
:10030E00076004500244F8FC7407C39CF5F005F036
:10031E007401800225E0D5F0FBFC86054DF60ABA85
:10032E00009A0B809712033A0203392212078D7539
:10033E003706753800120966858237858338900036
:10034E000C120849AA82AB83EA24D8FAEB3409FBD3
:10035E008A378B38753980753A0C753B00900021C1
:10036E0075F0401207D8752D07C3E4952AF52E8532
:10037E002E3575360090000712039AE5828583F0BC
:10038E0045F0600302040EC28C02016EAA82AB839A
:10039E007C03EC20E761EC2CFD2421F88A0686070D
:1003AE00EE2FFEED242104F8AD358607ED2FFDEE80
:1003BE0020E73DC3EE6480948E5035ED20E731C3C7
:1003CE00ED648094905029EE3395E0FFEDF53333D4
:1003DE0095E0F5348E828F83C002C003C0041201F3
:1003EE0072E5828583F0D004D003D00245F060041C
:1003FE00900000221C809B8A2D85352E90000122B4
:10040E00E521FA3395E0FBAC2D7D00EC2AF582ED6B
:10041E003BF583AA22E5223395E0FBAC2E7D00EC62
:10042E002AF518ED3BF5191206F6AA23E5233395A6
:10043E00E0FBAC2D7D00EC2AF582ED3BF583AA2482
:10044E00E5243395E0FBAC2E7D00EC2AF518ED3B50
:10045E00F5191206F6AA25E5253395E0FBAC2D7DA0
:10046E0000EC2AF582ED3BF583AA26E5263395E0CE
:10047E00FBAC2E7D00EC2AF518ED3BF5191206F6B5
:10048E00AA27E5273395E0FBAC2D7D00EC2AF582FB
:10049E00ED3BF583AA28E5283395E0FBAC2E7D00D5
:1004AE00EC2AF518ED3BF5190206F6C020C0E0C0A7
:1004BE00F0C082C083C002C003C004C005C006C025
:1004CE0007C000C001C0D075D0000532E53275F00E
:1004DE0005A4FAABF0AC307D00AE317F00ECC39ECC
:1004EE00FCED9FFDC3EA9CEB64808DF063F080957C
:1004FE00F04012753200E52F6008752F0012033A96
:10050E00800312023D758CAF758A3CD28CD0D0D050
:10051E0001D000D007D006D005D004D003D002D031
:10052E0083D082D0F0D0E0D02032AA2D7B00EA24F6
:10053E00FFF582EB34FFF583852E35753600020309
:10054E009AAA2D7B008A828B83A3852E3575360061
:10055E0002039A22AA2D7B00AC2E7D0074012CF58D
:0C056E0035E43DF5368A828B8302039A47
:1009D80000FF0000FF00FF01FFFF000100FF000013
:1009E8000100010100FF010100FF000000010002F9
:1009F80000FF0002FF00000001000001FF000101EC
:100A0800000001000001010100000101FFFF00FFDB
:100A180000000001FFFF000101FF00FF00000001CE
:040A280000FF0101C9
:10057A007580FFD2A5C2B2858082D2B22222AA8217
:10058A00C002120587D002D2A58A80C2B3D2B32292
:10059A00AA82C002120587D002C2A58A80C2B3D23B
:1005AA00B3120587D2A5850D80C2B3D2B322AA821F
:1005BA00C002120587D002C2A58A80C2B3D2B31282
:1005CA000587C2A5850E80C2B3D2B3120587D2A50C
:1005DA00850F80C2B3D2B322750E00750F427582A1
:1005EA00001205B8750E00750F437582141205B80E
:1005FA00758298020588858216858317E511C403DA
:10060A0054F8C510C403C5106510C51054F8C510B8
:10061A006510F511AC14E515C40354F8CCC403CC29
:10062A006CCC54F8CC6CFD7E007F00C3EE9CEF646A
:10063A00808DF063F08095F0400122EE2510F537A9
:10064A00EF3511F538900014C004C005C006C00784
:10065A00120849E5828583F0D007D006D005D00478
:10066A002516F8E51735F0F988027537007538014F
:10067A0088828983C002C004C005C006C007120967
:10068A009CAB82D007D006D005D004D0028B0E7561
:10069A000F248A82C004C005C006C0071205B8D05C
:1006AA0007D006D005D0047A007B00C3EA9512EB86
:1006BA0064808513F063F08095F05028750DC0753D
:1006CA008200C002C003C004C005C006C0071205EC
:1006DA009AD007D006D005D004D003D0020ABA00B7
:1006EA00CA0B80C70EBE00010F020635AA82AB8371
:1006FA00E519C40354F8C518C403C5186518C51804
:10070A0054F8C5186518F5197C007D00C3EC9408E7
:10071A00ED64809480400122E5182CF537E5193DF7
:10072A00F538900014C002C003C004C0051208497D
:10073A00E5828583F0D005D004D003D0022AFEEBEF
:10074A0035F0FF8E007537007538018E828F83C0B1
:10075A0002C003C004C005C00012099CAE82D000CA
:10076A008E0E750F2488821205B8750DC47582FF26
:10077A0012059AD005D004D003D0020CBC00010D9A
:03078A000207164D
:0A006F00751A01E4F51BF51CF51DE0
:10078D00851A37851B38851C39851D3A904E6D7538
:10079D00F0C67441120866AA82AB83ACF0FD7439C1
:1007AD002AF51A74303BF51BE43CF51CE43DF51DB0
:1007BD00AA1CAB1D8A82747F5BF58322AA82AB8350
:0B07CD008A1A8B1B751C00751D002292
:06004200E478FFF6D8FD92
:1007D800AA82AB83ACF08A3C8B3D8C3EA837A93803
:1007E800AD39883F89408D41A83AA93B88058906DB
:1007F80018B8FF0119ED4E6025853F828540838535
:1008080041F012094AFDA385823F8583408A828B85
:10081800838CF0ED120830A3AA82AB8380CE853C8E
:0808280082853D83853EF0222C
:100020007900E94400601B7A00900A2C780075A0E2
:1000300000E493F2A308B8000205A0D9F4DAF2753F
:02004000A0FF1F
:1008300020F71030F6118883A88220F507F6A883E8
:1008400075830022F280F7F022E5828537F0A4C597
:1008500082C0F08538F0A4D0F025F0C5838537F04C
:10086000A42583F58322AAF0FBE5828537F0A4FC5A
:10087000ADF0E5838537F0A42DFDE435F0FEE5828B
:100880008538F0A42DFDE5F03EFEE433FFEA853720
:10089000F0A42EFEE5F03FFFE5838538F0A42EFEA0
:1008A000E5F03FFFE5828539F0A42EFEE5F03FFF3D
:1008B000EB8537F0A42FFFEA8538F0A42FFFE583FE
:1008C0008539F0A42FFFE582853AF0A42F8EF08DB4
:1008D000838C8222E537453860467A01E53725E08A
:1008E000F537E538334012F538E5829537E58395DD
:1008F0003840030A80E6C3E53813F538E53713F5C9
:1009000037C3E5829537F5F0E58395384005F583E3
:1009100085F082C3E53813F538E53713F537DAE1AA
:0109200022B4
:100048007800E84400600A790075A000E4F309D854
:10005800FC7800E84400600C7900900000E4F0A30C
:04006800D8FCD9FAED
:100921007A10E4FBFCE58225E0F582E58333F5836B
:10093100EB33FBEC33FCEB9537F5F0EC95384006E7
:09094100FCABF0438201DADD2277
:0D00130075815D1209D4E582600302000EC4
:10094A0020F71430F6148883A88220F507E6A883D6
:10095A0075830022E280F7E49322E022C2D5E58380
:10096A0030E70DD2D5E4C39582F582E49583F58309
:10097A00E53830E70BE4C39537F537E49538F538B1
:10098A001208D430D50BE4C39582F582E49583F539
:10099A008322C2D5E58330E70DD2D5E4C39582F52B
:1009AA0082E49583F583E53830E70DB2D5E4C39543
:1009BA0037F537E49538F53812092130D50BE4C3F9
:0E09CA009582F582E49583F5832275820022E2
:00000001FF
