:03000000020008F3
:0300610002000397
:0500030012007680FEF2
:100064007A847B038A048B051ABAFF011BEC4D705A
:10007400F322120064750802D290020081E508FAA6
:100084007001228508B0750930758200C002120122
:10009400AC75091C7582011201ACD0027B0875098C
:1000A40001758200C002C0031201AC75090175829A
:1000B400011201ACD003D002DBE47B0875090175A1
:1000C4008200C002C0031201AC75090375820112DB
:1000D40001ACD003D002DBE47B00BB0800504B75BD
:1000E4000901758200C002C0031201ACD003D00222
:1000F4008BF005F07C017D008006EC2CFCED33FDDB
:10010400D5F0F78A067F00EE5204EF5205EC4D60FD
:10011400047C0380027C018C09758201C002C00347
:100124001201ACD003D0020B80B0EAF4FA7B00BB1E
:100134000800504B750901758200C002C00312010A
:10014400ACD003D0028BF005F07C017D008006EC7E
:100154002CFCED33FDD5F0F78A067F00EE5204EF58
:100164005205EC4D60047C0380027C018C0975828D
:1001740001C002C0031201ACD003D0020B80B02234
:1001840020A00730A0FD7508012220A10730A1FDA1
:100194007508022220A20730A2FD7508042220A3BC
:1001A4000630A3FD75080822AA82AB098B041BEC58
:1001B400601B7C007D00C3EC9430ED64809480501F
:0E01C400EBEA24FF92900CBC00EC0D80E922C7
:06003700E478FFF6D8FD9D
:100015007900E94400601B7A009001D6780075A04C
:1000250000E493F2A308B8000205A0D9F4DAF2754A
:02003500A0FF2A
:10003D007800E84400600A790075A000E4F309D85F
:10004D00FC7800E84400600C7900900000E4F0A317
:04005D00D8FCD9FAF8
:0D0008007581091201D2E582600302000338
:0401D2007582002210
:00000001FF
